:101C000011241FBECFE5D4E0DEBFCDBF20E0A0E6AB
:101C1000B0E001C01D92A13AB207E1F731D062C134
:101C20002EC085E08EBD08B602FE0EC018BE8091A3
:101C3000A00091E0980F9093A000893028F01EBC7E
:101C400019BEE0E0F0E0099408951092A0005F99B9
:101C500002C0E7DFFCCF8CB10895CF93DF931F92D2
:101C6000CDB7DEB71092A0005D9904C08983D9DF9B
:101C70008981FACF8CB90F90DF91CF9108950895A3
:101C8000959A8D9AF894A8950FB6F894A89581B571
:101C9000886181BD11BC0FBEB99AC1988D98959A83
:101CA000BF98C79A10BC89E189B988E18AB986E8EA
:101CB00080BDE0E9F1E080E090E0859B02C0B7994B
:101CC0000196AFECB7E01197F1F700C00000319733
:101CD000A1F7893C910518F095988D98099510E029
:101CE000C0E0D0E008E1B02E8CE0A82E93E0992E61
:101CF00001E18824839425E0222EA7DF813611F4A8
:101D000089E5EEC0813441F4A0DFC82FD0E0DC2F9C
:101D1000CC279BDFC82BC0C0823631F489E59DDF1C
:101D200080E09BDF80E4DCC0823409F053C08DDFAB
:101D30008CDF582E8ADF382EA0E6EA2EA0E0FA2E9D
:101D4000412C451410F481DF01C08FEFF70181931E
:101D50007F014394F0E44F12F4CF173709F090C09D
:101D600026E4321299C0CE01A0E0B0E06C017D0102
:101D7000CC0CDD1CEE1CFF1C20916000B701A601FD
:101D8000A0E6B0E01296FD013197808130E0382B5B
:101D9000FA01090180925700E89511244E5F5F4FC8
:101DA0006F4F7F4F20E630E02A1B822F850D11F008
:101DB0002C91E8CFF60120925700E89507B600FC79
:101DC000FDCF00935700E895769567955795479511
:101DD000EA0162C0873641F538DF37DFF82E35DF9C
:101DE000863409F08ACFCE01A0E0B0E02C013D019D
:101DF000440C551C661C771CCF2DC40DF201E590D8
:101E0000F4908E2D2ADF8F2D28DFF2E04F0E511C2B
:101E1000611C711CC411F2CFD301C201B695A79504
:101E200097958795EC0169CF8536A9F4173709F0A6
:101E300033C0E0E0F0E090925700E89507B600FC70
:101E4000FDCFE05CFF4FE1152CE1F207A1F7009315
:101E50005700E89521C0853439F40FB6F894A89559
:101E6000B1BC0FBEA1BC18C08035B1F08C34A1F05C
:101E7000803711F483E534C0843721F487E7EDDE41
:101E800080E02EC098E8980F923010F4DEDE04C097
:101E9000843521F4DADE182F8DE022C0833571F409
:101EA00081E4DBDE86E5D9DE82E5D7DE82E4D5DEBD
:101EB0008FE4D3DE8FE4D1DE84E512C0863521F4D1
:101EC00080E3CBDE88E30CC0833731F487E0C5DEE6
:101ED00083E9C3DE8EE104C08B3109F40ECF8FE3BA
:081EE000BCDE0BCFF894FFCF2C
:0400000300001C00DD
:00000001FF
