:101C000011241FBECFE5D4E0DEBFCDBF20E0A0E6AB
:101C1000B0E001C01D92A03AB207E1F70BD08BC132
:101C200008C05D9BFECF8CB908955F9BFECF8CB141
:101C300008950895CF93DF931F92CDB7DEB7959A9D
:101C40008D9AF894A8950FB6F894A89581B58861F7
:101C500081BD11BC0FBEB99AC1988D98959ABF9855
:101C6000C79A10BC89E189B988E18AB986E880BD44
:101C7000E0E9F1E080E090E0859B02C0B799019631
:101C8000AFECB7E01197F1F700C000003197A1F772
:101C9000893C910528F09598C79895988D98099555
:101CA00010E0612C712C78E1972EECE08E2EF3E0A1
:101CB0002F2E01E1A0E6AA2EA0E0BA2EB6DF8136D3
:101CC00011F489E521C1813441F4AFDF682E712C14
:101CD000762C6624AADF682AF3C0823631F489E5BF
:101CE000A0DF80E09EDF80E40FC1823409F071C084
:101CF0009CDF9BDF482E99DF982F50E6E52E50E0C1
:101D0000F52ED12CD41420F499838FDF998101C052
:101D10008FEFF70181937F01D394F0E4DF12F2CFCC
:101D2000173709F0C1C0963409F037C06301E12CC0
:101D3000F12CCC0CDD1CEE1CFF1C20916000B701C7
:101D4000A601A0E6B0E01296FD013197808130E057
:101D5000382B81E0FA01090180935700E89511249E
:101D60004E5F5F4F6F4F7F4F8A2D8A1B840D11F09E
:101D70002C91E9CF85E0F60180935700E89507B6EE
:101D800000FCFDCF00935700E895DB01CA01B69532
:101D9000A795979587953C0193C0953409F090C01D
:101DA00020E6E22E20E0F22E6301342C3A0CD7011B
:101DB0006D917D01C601B2D0BFEFCB1ADB0A3E1098
:101DC000F6CFEFEF6E1A7E0A8FEF840D680E711C4E
:101DD00077C0873609F03CC028DF27DFF82E25DFE3
:101DE000863409F5A30160E070E02A013B01440C50
:101DF000551C661C771CDF2CD40CF201E590F49086
:101E00008E2D0FDF8F2D0DDFF2E04F0E511C611C68
:101E1000711CD410F2CFB301A20176956795579546
:101E200047953A014BCF853409F048CF6301E62C42
:101E3000EF0CC6016BD0F5DE8FEFC81AD80AEC1094
:101E4000F8CFAFEF6A1A7A0AFA946F0C711C36CF8A
:101E50008536A9F4173709F033C0E0E0F0E02092AE
:101E60005700E89507B600FCFDCFE05CFF4FE11599
:101E7000BCE1FB07A1F700935700E89521C085342A
:101E800039F40FB6F894A89591BC0FBE81BC18C068
:101E90008035B1F08C34A1F0803711F483E534C083
:101EA000843721F487E7BDDE80E02EC098E8980FE4
:101EB000923010F4BADE04C0843521F4B6DE182F57
:101EC0008DE022C0833571F481E4ABDE86E5A9DEC6
:101ED00082E5A7DE82E4A5DE8FE4A3DE8FE4A1DE47
:101EE00084E512C0863521F480E39BDE88E30CC0D4
:101EF000833731F487E095DE83E993DE8EE104C019
:101F00008B3109F4DBCE8FE38CDED8CEE199FECFA6
:101F10009FBB8EBBE09A99278DB30895262FE19938
:101F2000FECF9FBB8EBB2DBB0FB6F894E29AE19A11
:0A1F30000FBE01960895F894FFCF4C
:0400000300001C00DD
:00000001FF
