:101C000011241FBECFE5D4E0DEBFCDBF20E0A0E6AB
:101C1000B0E001C01D92A03AB207E1F70BD07CC141
:101C200008C05D9BFECF8CB908955F9BFECF8CB141
:101C300008950895CF93DF931F92CDB7DEB7959A9D
:101C40008D9AF894A8950FB6F894A89581B58861F7
:101C500081BD11BC0FBE8D98959ABF98C79A10BCD4
:101C600089E189B988E18AB986E880BD859B09C088
:101C7000B79B07C09598C79895988D98E0E0F0E0DD
:101C8000099510E0612C712C78E1972EECE08E2EF6
:101C9000F3E02F2E01E1A0E6AA2EA0E0BA2EC5DFC8
:101CA000813611F489E521C1813441F4BEDF682E0B
:101CB000712C762C6624B9DF682AF3C0823631F4A1
:101CC00089E5AFDF80E0ADDF80E40FC1823409F049
:101CD00071C0ABDFAADF482EA8DF982F50E6E52EB3
:101CE00050E0F52ED12CD41420F499839EDF9981F5
:101CF00001C08FEFF70181937F01D394F0E4DF12ED
:101D0000F2CF173709F0C1C0963409F037C063012C
:101D1000E12CF12CCC0CDD1CEE1CFF1C2091600092
:101D2000B701A601A0E6B0E01296FD0131978081CF
:101D300030E0382B81E0FA01090180935700E895E3
:101D400011244E5F5F4F6F4F7F4F8A2D8A1B840D8A
:101D500011F02C91E9CF85E0F60180935700E895CA
:101D600007B600FCFDCF00935700E895DB01CA01E0
:101D7000B695A795979587953C0193C0953409F042
:101D800090C020E6E22E20E0F22E6301342C3A0CC3
:101D9000F70161917F01C601B2D0FFEFCF1ADF0AD0
:101DA0003E10F6CF8FEF681A780A8FEF840D680E19
:101DB000711C77C0873609F03CC037DF36DFF82E5C
:101DC00034DF863409F5A30160E070E02A013B01AD
:101DD000440C551C661C771CDF2CD40CF201E590DA
:101DE000F4908E2D1EDF8F2D1CDFE2E04E0E511C75
:101DF000611C711CD410F2CFB301A20176956795D6
:101E0000579547953A014BCF853409F048CF630188
:101E1000E62CEF0CC6016BD004DFFFEFCF1ADF0A10
:101E2000EC10F8CF8FEF681A780AFA946F0C711CD7
:101E300036CF8536A9F4173709F033C0E0E0F0E07B
:101E400020925700E89507B600FCFDCFE05CFF4FFD
:101E5000E1158CE1F807A1F700935700E89521C040
:101E6000853439F40FB6F894A89591BC0FBE81BCA7
:101E700018C08035B1F08C34A1F0803711F483E5BF
:101E800034C0843721F487E7CCDE80E02EC098E8A8
:101E9000980F923010F4C9DE04C0843521F4C5DEF9
:101EA000182F8DE022C0833571F481E4BADE86E517
:101EB000B8DE82E5B6DE82E4B4DE8FE4B2DE8FE423
:101EC000B0DE84E512C0863521F480E3AADE88E323
:101ED0000CC0833731F487E0A4DE83E9A2DE8EE113
:101EE00004C08B3109F4DBCE8FE39BDED8CEE199C1
:101EF000FECF9FBB8EBBE09A99278DB30895262F06
:101F0000E199FECF9FBB8EBB2DBB0FB6F894E29A32
:0C1F1000E19A0FBE01960895F894FFCFEF
:0400000300001C00DD
:00000001FF
